{
  "contractName": "ZombieHelper",
  "abi": [
    {
      "constant": false,
      "inputs": [
        {
          "name": "_zombieId",
          "type": "uint256"
        },
        {
          "name": "_kittyId",
          "type": "uint256"
        }
      ],
      "name": "feedOnKitty",
      "outputs": [],
      "payable": false,
      "stateMutability": "nonpayable",
      "type": "function"
    },
    {
      "constant": true,
      "inputs": [
        {
          "name": "",
          "type": "uint256"
        }
      ],
      "name": "zombies",
      "outputs": [
        {
          "name": "name",
          "type": "string"
        },
        {
          "name": "dna",
          "type": "uint256"
        },
        {
          "name": "level",
          "type": "uint32"
        },
        {
          "name": "readyTime",
          "type": "uint32"
        },
        {
          "name": "winCount",
          "type": "uint16"
        },
        {
          "name": "lossCount",
          "type": "uint16"
        }
      ],
      "payable": false,
      "stateMutability": "view",
      "type": "function"
    },
    {
      "constant": true,
      "inputs": [
        {
          "name": "",
          "type": "uint256"
        }
      ],
      "name": "zombieToOwner",
      "outputs": [
        {
          "name": "",
          "type": "address"
        }
      ],
      "payable": false,
      "stateMutability": "view",
      "type": "function"
    },
    {
      "constant": false,
      "inputs": [
        {
          "name": "_address",
          "type": "address"
        }
      ],
      "name": "setKittyContractAddress",
      "outputs": [],
      "payable": false,
      "stateMutability": "nonpayable",
      "type": "function"
    },
    {
      "constant": false,
      "inputs": [],
      "name": "renounceOwnership",
      "outputs": [],
      "payable": false,
      "stateMutability": "nonpayable",
      "type": "function"
    },
    {
      "constant": false,
      "inputs": [
        {
          "name": "_name",
          "type": "string"
        }
      ],
      "name": "createRandomZombie",
      "outputs": [],
      "payable": false,
      "stateMutability": "nonpayable",
      "type": "function"
    },
    {
      "constant": true,
      "inputs": [],
      "name": "owner",
      "outputs": [
        {
          "name": "",
          "type": "address"
        }
      ],
      "payable": false,
      "stateMutability": "view",
      "type": "function"
    },
    {
      "constant": true,
      "inputs": [],
      "name": "isOwner",
      "outputs": [
        {
          "name": "",
          "type": "bool"
        }
      ],
      "payable": false,
      "stateMutability": "view",
      "type": "function"
    },
    {
      "constant": false,
      "inputs": [
        {
          "name": "newOwner",
          "type": "address"
        }
      ],
      "name": "transferOwnership",
      "outputs": [],
      "payable": false,
      "stateMutability": "nonpayable",
      "type": "function"
    },
    {
      "anonymous": false,
      "inputs": [
        {
          "indexed": false,
          "name": "zombieId",
          "type": "uint256"
        },
        {
          "indexed": false,
          "name": "name",
          "type": "string"
        },
        {
          "indexed": false,
          "name": "dna",
          "type": "uint256"
        }
      ],
      "name": "NewZombie",
      "type": "event"
    },
    {
      "anonymous": false,
      "inputs": [
        {
          "indexed": true,
          "name": "previousOwner",
          "type": "address"
        },
        {
          "indexed": true,
          "name": "newOwner",
          "type": "address"
        }
      ],
      "name": "OwnershipTransferred",
      "type": "event"
    },
    {
      "constant": false,
      "inputs": [],
      "name": "withdraw",
      "outputs": [],
      "payable": false,
      "stateMutability": "nonpayable",
      "type": "function"
    },
    {
      "constant": false,
      "inputs": [
        {
          "name": "_fee",
          "type": "uint256"
        }
      ],
      "name": "setLevelUpFee",
      "outputs": [],
      "payable": false,
      "stateMutability": "nonpayable",
      "type": "function"
    },
    {
      "constant": false,
      "inputs": [
        {
          "name": "_zombieId",
          "type": "uint256"
        }
      ],
      "name": "levelUp",
      "outputs": [],
      "payable": true,
      "stateMutability": "payable",
      "type": "function"
    },
    {
      "constant": false,
      "inputs": [
        {
          "name": "_zombieId",
          "type": "uint256"
        },
        {
          "name": "_newName",
          "type": "string"
        }
      ],
      "name": "changeName",
      "outputs": [],
      "payable": false,
      "stateMutability": "nonpayable",
      "type": "function"
    },
    {
      "constant": false,
      "inputs": [
        {
          "name": "_zombieId",
          "type": "uint256"
        },
        {
          "name": "_newDna",
          "type": "uint256"
        }
      ],
      "name": "changeDna",
      "outputs": [],
      "payable": false,
      "stateMutability": "nonpayable",
      "type": "function"
    },
    {
      "constant": true,
      "inputs": [
        {
          "name": "_owner",
          "type": "address"
        }
      ],
      "name": "getZombiesByOwner",
      "outputs": [
        {
          "name": "",
          "type": "uint256[]"
        }
      ],
      "payable": false,
      "stateMutability": "view",
      "type": "function"
    },
    {
      "constant": true,
      "inputs": [
        {
          "name": "_count",
          "type": "uint256"
        }
      ],
      "name": "getTopZombiesByLevel",
      "outputs": [
        {
          "name": "",
          "type": "uint256[]"
        }
      ],
      "payable": false,
      "stateMutability": "view",
      "type": "function"
    },
    {
      "constant": true,
      "inputs": [
        {
          "name": "_count",
          "type": "uint256"
        }
      ],
      "name": "getTopZombiesByWins",
      "outputs": [
        {
          "name": "",
          "type": "uint256[]"
        }
      ],
      "payable": false,
      "stateMutability": "view",
      "type": "function"
    }
  ],
  "bytecode": "0x60806040526010600155600154600a0a6002556201518060035566038d7ea4c68000600855336000806101000a81548173ffffffffffffffffffffffffffffffffffffffff021916908373ffffffffffffffffffffffffffffffffffffffff1602179055506000809054906101000a900473ffffffffffffffffffffffffffffffffffffffff1673ffffffffffffffffffffffffffffffffffffffff16600073ffffffffffffffffffffffffffffffffffffffff167f8be0079c531659141344cd1fd0a4f28419497f9722a3daafe3b4186f6b6457e060405160405180910390a3611e42806100ef6000396000f3006080604052600436106100f1576000357c0100000000000000000000000000000000000000000000000000000000900463ffffffff1680630ce90ec2146100f657806317a7f4cc146101165780632052465e1461014d5780633ccfd60b1461023e5780634412e104146102555780634a3022d7146102ed578063528b7b8f1461036f5780635f4623f1146103dc5780635faf28801461041f578063715018a6146104565780637bff0a011461046d578063809bd2af146104d65780638da5cb5b146105585780638f32d59b146105af578063c39cbef1146105de578063ccf670f814610623578063f2fde38b14610650575b600080fd5b61011460048036038101908080359060200190929190505050610693565b005b34801561012257600080fd5b5061014b600480360381019080803590602001909291908035906020019092919050505061072e565b005b34801561015957600080fd5b50610178600480360381019080803590602001909291905050506108d7565b60405180806020018781526020018663ffffffff1663ffffffff1681526020018563ffffffff1663ffffffff1681526020018461ffff1661ffff1681526020018361ffff1661ffff168152602001828103825288818151815260200191508051906020019080838360005b838110156101fe5780820151818401526020810190506101e3565b50505050905090810190601f16801561022b5780820380516001836020036101000a031916815260200191505b5097505050505050505060405180910390f35b34801561024a57600080fd5b506102536109f6565b005b34801561026157600080fd5b50610296600480360381019080803573ffffffffffffffffffffffffffffffffffffffff169060200190929190505050610a76565b6040518080602001828103825283818151815260200191508051906020019060200280838360005b838110156102d95780820151818401526020810190506102be565b505050509050019250505060405180910390f35b3480156102f957600080fd5b5061031860048036038101908080359060200190929190505050610ba8565b6040518080602001828103825283818151815260200191508051906020019060200280838360005b8381101561035b578082015181840152602081019050610340565b505050509050019250505060405180910390f35b34801561037b57600080fd5b5061039a60048036038101908080359060200190929190505050610e40565b604051808273ffffffffffffffffffffffffffffffffffffffff1673ffffffffffffffffffffffffffffffffffffffff16815260200191505060405180910390f35b3480156103e857600080fd5b5061041d600480360381019080803573ffffffffffffffffffffffffffffffffffffffff169060200190929190505050610e73565b005b34801561042b57600080fd5b506104546004803603810190808035906020019092919080359060200190929190505050610eca565b005b34801561046257600080fd5b5061046b610fac565b005b34801561047957600080fd5b506104d4600480360381019080803590602001908201803590602001908080601f016020809104026020016040519081016040528093929190818152602001838380828437820191505050505050919291929050505061107e565b005b3480156104e257600080fd5b50610501600480360381019080803590602001909291905050506110aa565b6040518080602001828103825283818151815260200191508051906020019060200280838360005b83811015610544578082015181840152602081019050610529565b505050509050019250505060405180910390f35b34801561056457600080fd5b5061056d611346565b604051808273ffffffffffffffffffffffffffffffffffffffff1673ffffffffffffffffffffffffffffffffffffffff16815260200191505060405180910390f35b3480156105bb57600080fd5b506105c461136f565b604051808215151515815260200191505060405180910390f35b3480156105ea57600080fd5b50610621600480360381019080803590602001909291908035906020019082018035906020019190919293919293905050506113c6565b005b34801561062f57600080fd5b5061064e600480360381019080803590602001909291905050506114b4565b005b34801561065c57600080fd5b50610691600480360381019080803573ffffffffffffffffffffffffffffffffffffffff1690602001909291905050506114d1565b005b600854341415156106a357600080fd5b6106ed60016004838154811015156106b757fe5b906000526020600020906003020160020160009054906101000a900463ffffffff1663ffffffff166114f090919063ffffffff16565b6004828154811015156106fc57fe5b906000526020600020906003020160020160006101000a81548163ffffffff021916908363ffffffff16021790555050565b6000600760009054906101000a900473ffffffffffffffffffffffffffffffffffffffff1673ffffffffffffffffffffffffffffffffffffffff1663e98b7f4d836040518263ffffffff167c01000000000000000000000000000000000000000000000000000000000281526004018082815260200191505061014060405180830381600087803b1580156107c257600080fd5b505af11580156107d6573d6000803e3d6000fd5b505050506040513d6101408110156107ed57600080fd5b8101908080519060200190929190805190602001909291908051906020019092919080519060200190929190805190602001909291908051906020019092919080519060200190929190805190602001909291908051906020019092919080519060200190929190505050909192939495969798509091929394959697509091929394959650909192939495509091929394509091929350909192509091509050809150506108d283826040805190810160405280600581526020017f6b6974747900000000000000000000000000000000000000000000000000000081525061151a565b505050565b6004818154811015156108e657fe5b9060005260206000209060030201600091509050806000018054600181600116156101000203166002900480601f0160208091040260200160405190810160405280929190818152602001828054600181600116156101000203166002900480156109925780601f1061096757610100808354040283529160200191610992565b820191906000526020600020905b81548152906001019060200180831161097557829003601f168201915b5050505050908060010154908060020160009054906101000a900463ffffffff16908060020160049054906101000a900463ffffffff16908060020160089054906101000a900461ffff169080600201600a9054906101000a900461ffff16905086565b6000610a0061136f565b1515610a0b57600080fd5b610a13611346565b90508073ffffffffffffffffffffffffffffffffffffffff166108fc3073ffffffffffffffffffffffffffffffffffffffff16319081150290604051600060405180830381858888f19350505050158015610a72573d6000803e3d6000fd5b5050565b606080600080600660008673ffffffffffffffffffffffffffffffffffffffff1673ffffffffffffffffffffffffffffffffffffffff16815260200190815260200160002054604051908082528060200260200182016040528015610aea5781602001602082028038833980820191505090505b50925060009150600090505b600480549050811015610b9d578473ffffffffffffffffffffffffffffffffffffffff166005600083815260200190815260200160002060009054906101000a900473ffffffffffffffffffffffffffffffffffffffff1673ffffffffffffffffffffffffffffffffffffffff161415610b9057808383815181101515610b7957fe5b906020019060200201818152505081806001019250505b8080600101915050610af6565b829350505050919050565b606080606060008060008060008060008a118015610bc7575060648a11155b1515610bd257600080fd5b89604051908082528060200260200182016040528015610c015781602001602082028038833980820191505090505b50975089604051908082528060200260200182016040528015610c335781602001602082028038833980820191505090505b50965060009550600094505b60048054905085108015610c5257508986105b15610cd857848887815181101515610c6657fe5b9060200190602002018181525050600485815481101515610c8357fe5b906000526020600020906003020160020160089054906101000a900461ffff1661ffff168787815181101515610cb557fe5b906020019060200201818152505085806001019650508480600101955050610c3f565b600093505b60018603841015610e3057600092505b600184870303831015610e23578660018401815181101515610d0b57fe5b906020019060200201518784815181101515610d2357fe5b906020019060200201511015610e16578683815181101515610d4157fe5b9060200190602002015191508660018401815181101515610d5e57fe5b906020019060200201518784815181101515610d7657fe5b9060200190602002018181525050818760018501815181101515610d9657fe5b90602001906020020181815250508783815181101515610db257fe5b9060200190602002015190508760018401815181101515610dcf57fe5b906020019060200201518884815181101515610de757fe5b9060200190602002018181525050808860018501815181101515610e0757fe5b90602001906020020181815250505b8280600101935050610ced565b8380600101945050610cdd565b8798505050505050505050919050565b60056020528060005260406000206000915054906101000a900473ffffffffffffffffffffffffffffffffffffffff1681565b610e7b61136f565b1515610e8657600080fd5b80600760006101000a81548173ffffffffffffffffffffffffffffffffffffffff021916908373ffffffffffffffffffffffffffffffffffffffff16021790555050565b60148281600482815481101515610edd57fe5b906000526020600020906003020160020160009054906101000a900463ffffffff1663ffffffff1610151515610f1257600080fd5b836005600082815260200190815260200160002060009054906101000a900473ffffffffffffffffffffffffffffffffffffffff1673ffffffffffffffffffffffffffffffffffffffff163373ffffffffffffffffffffffffffffffffffffffff16141515610f8057600080fd5b83600486815481101515610f9057fe5b9060005260206000209060030201600101819055505050505050565b610fb461136f565b1515610fbf57600080fd5b600073ffffffffffffffffffffffffffffffffffffffff166000809054906101000a900473ffffffffffffffffffffffffffffffffffffffff1673ffffffffffffffffffffffffffffffffffffffff167f8be0079c531659141344cd1fd0a4f28419497f9722a3daafe3b4186f6b6457e060405160405180910390a360008060006101000a81548173ffffffffffffffffffffffffffffffffffffffff021916908373ffffffffffffffffffffffffffffffffffffffff160217905550565b6000611089826117c7565b905060648181151561109757fe5b06810390506110a682826118b5565b5050565b606080606060008060008060008060008a1180156110c9575060648a11155b15156110d457600080fd5b896040519080825280602002602001820160405280156111035781602001602082028038833980820191505090505b509750896040519080825280602002602001820160405280156111355781602001602082028038833980820191505090505b50965060009550600094505b6004805490508510801561115457508986105b156111de5784888781518110151561116857fe5b906020019060200201818152505060048581548110151561118557fe5b906000526020600020906003020160020160009054906101000a900463ffffffff1663ffffffff1687878151811015156111bb57fe5b906020019060200201818152505085806001019650508480600101955050611141565b600093505b6001860384101561133657600092505b60018487030383101561132957866001840181518110151561121157fe5b90602001906020020151878481518110151561122957fe5b90602001906020020151101561131c57868381518110151561124757fe5b906020019060200201519150866001840181518110151561126457fe5b90602001906020020151878481518110151561127c57fe5b906020019060200201818152505081876001850181518110151561129c57fe5b906020019060200201818152505087838151811015156112b857fe5b90602001906020020151905087600184018151811015156112d557fe5b9060200190602002015188848151811015156112ed57fe5b906020019060200201818152505080886001850181518110151561130d57fe5b90602001906020020181815250505b82806001019350506111f3565b83806001019450506111e3565b8798505050505050505050919050565b60008060009054906101000a900473ffffffffffffffffffffffffffffffffffffffff16905090565b60008060009054906101000a900473ffffffffffffffffffffffffffffffffffffffff1673ffffffffffffffffffffffffffffffffffffffff163373ffffffffffffffffffffffffffffffffffffffff1614905090565b600283816004828154811015156113d957fe5b906000526020600020906003020160020160009054906101000a900463ffffffff1663ffffffff161015151561140e57600080fd5b846005600082815260200190815260200160002060009054906101000a900473ffffffffffffffffffffffffffffffffffffffff1673ffffffffffffffffffffffffffffffffffffffff163373ffffffffffffffffffffffffffffffffffffffff1614151561147c57600080fd5b848460048881548110151561148d57fe5b906000526020600020906003020160000191906114ab929190611cf1565b50505050505050565b6114bc61136f565b15156114c757600080fd5b8060088190555050565b6114d961136f565b15156114e457600080fd5b6114ed81611b88565b50565b60008082840190508363ffffffff168163ffffffff161015151561151057fe5b8091505092915050565b600080846005600082815260200190815260200160002060009054906101000a900473ffffffffffffffffffffffffffffffffffffffff1673ffffffffffffffffffffffffffffffffffffffff163373ffffffffffffffffffffffffffffffffffffffff1614151561158b57600080fd5b60048681548110151561159a57fe5b906000526020600020906003020192506115b383611c82565b15156115be57600080fd5b600254858115156115cb57fe5b0694506002858460010154018115156115e057fe5b04915060405160200180807f6b6974747900000000000000000000000000000000000000000000000000000081525060050190506040516020818303038152906040526040518082805190602001908083835b6020831015156116585780518252602082019150602081019050602083039250611633565b6001836020036101000a038019825116818451168082178552505050505050905001915050604051809103902060001916846040516020018082805190602001908083835b6020831015156116c2578051825260208201915060208101905060208303925061169d565b6001836020036101000a0380198251168184511680821785525050505050509050019150506040516020818303038152906040526040518082805190602001908083835b60208310151561172b5780518252602082019150602081019050602083039250611706565b6001836020036101000a038019825116818451168082178552505050505050905001915050604051809103902060001916141561177757606360648381151561177057fe5b0683030191505b6117b66040805190810160405280600681526020017f4e6f4e616d650000000000000000000000000000000000000000000000000000815250836118b5565b6117bf83611ca9565b505050505050565b600080826040516020018082805190602001908083835b60208310151561180357805182526020820191506020810190506020830392506117de565b6001836020036101000a0380198251168184511680821785525050505050509050019150506040516020818303038152906040526040518082805190602001908083835b60208310151561186c5780518252602082019150602081019050602083039250611847565b6001836020036101000a0380198251168184511680821785525050505050509050019150506040518091039020600190049050600254818115156118ac57fe5b06915050919050565b60006001600460c060405190810160405280868152602001858152602001600163ffffffff168152602001600354420163ffffffff168152602001600061ffff168152602001600061ffff1681525090806001815401808255809150509060018203906000526020600020906003020160009091929091909150600082015181600001908051906020019061194b929190611d71565b506020820151816001015560408201518160020160006101000a81548163ffffffff021916908363ffffffff16021790555060608201518160020160046101000a81548163ffffffff021916908363ffffffff16021790555060808201518160020160086101000a81548161ffff021916908361ffff16021790555060a082015181600201600a6101000a81548161ffff021916908361ffff1602179055505050039050336005600083815260200190815260200160002060006101000a81548173ffffffffffffffffffffffffffffffffffffffff021916908373ffffffffffffffffffffffffffffffffffffffff160217905550611a946001600660003373ffffffffffffffffffffffffffffffffffffffff1673ffffffffffffffffffffffffffffffffffffffff16815260200190815260200160002054611cd390919063ffffffff16565b600660003373ffffffffffffffffffffffffffffffffffffffff1673ffffffffffffffffffffffffffffffffffffffff168152602001908152602001600020819055507f88f026aacbbecc90c18411df4b1185fd8d9be2470f1962f192bf84a27d0704b78184846040518084815260200180602001838152602001828103825284818151815260200191508051906020019080838360005b83811015611b47578082015181840152602081019050611b2c565b50505050905090810190601f168015611b745780820380516001836020036101000a031916815260200191505b5094505050505060405180910390a1505050565b600073ffffffffffffffffffffffffffffffffffffffff168173ffffffffffffffffffffffffffffffffffffffff1614151515611bc457600080fd5b8073ffffffffffffffffffffffffffffffffffffffff166000809054906101000a900473ffffffffffffffffffffffffffffffffffffffff1673ffffffffffffffffffffffffffffffffffffffff167f8be0079c531659141344cd1fd0a4f28419497f9722a3daafe3b4186f6b6457e060405160405180910390a3806000806101000a81548173ffffffffffffffffffffffffffffffffffffffff021916908373ffffffffffffffffffffffffffffffffffffffff16021790555050565b6000428260020160049054906101000a900463ffffffff1663ffffffff1611159050919050565b60035442018160020160046101000a81548163ffffffff021916908363ffffffff16021790555050565b6000808284019050838110151515611ce757fe5b8091505092915050565b828054600181600116156101000203166002900490600052602060002090601f016020900481019282601f10611d3257803560ff1916838001178555611d60565b82800160010185558215611d60579182015b82811115611d5f578235825591602001919060010190611d44565b5b509050611d6d9190611df1565b5090565b828054600181600116156101000203166002900490600052602060002090601f016020900481019282601f10611db257805160ff1916838001178555611de0565b82800160010185558215611de0579182015b82811115611ddf578251825591602001919060010190611dc4565b5b509050611ded9190611df1565b5090565b611e1391905b80821115611e0f576000816000905550600101611df7565b5090565b905600a165627a7a7230582085b9abf6150dc8c26a3b8e5ec17cb728228720fc20d669ec585c8e385b4a72470029",
  "source": "pragma solidity ^0.4.25;\r\n\r\nimport \"./zombiefeeding.sol\";\r\n\r\ncontract ZombieHelper is ZombieFeeding {\r\n\r\n  uint levelUpFee = 0.001 ether;\r\n\r\n  modifier aboveLevel(uint _level, uint _zombieId) {\r\n    require(zombies[_zombieId].level >= _level);\r\n    _;\r\n  }\r\n\r\n  function withdraw() external onlyOwner {\r\n    address _owner = owner();\r\n    _owner.transfer(address(this).balance);\r\n  }\r\n\r\n  function setLevelUpFee(uint _fee) external onlyOwner {\r\n    levelUpFee = _fee;\r\n  }\r\n\r\n  function levelUp(uint _zombieId) external payable {\r\n    require(msg.value == levelUpFee);\r\n    zombies[_zombieId].level = zombies[_zombieId].level.add(1);\r\n  }\r\n\r\n  function changeName(uint _zombieId, string _newName) external aboveLevel(2, _zombieId) onlyOwnerOf(_zombieId) {\r\n    zombies[_zombieId].name = _newName;\r\n  }\r\n\r\n  function changeDna(uint _zombieId, uint _newDna) external aboveLevel(20, _zombieId) onlyOwnerOf(_zombieId) {\r\n    zombies[_zombieId].dna = _newDna;\r\n  }\r\n\r\n  function getZombiesByOwner(address _owner) external view returns(uint[]) {\r\n    uint[] memory result = new uint[](ownerZombieCount[_owner]);\r\n    uint counter = 0;\r\n    for (uint i = 0; i < zombies.length; i++) {\r\n      if (zombieToOwner[i] == _owner) {\r\n        result[counter] = i;\r\n        counter++;\r\n      }\r\n    }\r\n    return result;\r\n  }\r\n\r\n  // Leaderboard functions\r\n  function getTopZombiesByLevel(uint _count) external view returns(uint[]) {\r\n    require(_count > 0 && _count <= 100); // Limit to prevent gas issues\r\n    \r\n    uint[] memory topZombies = new uint[](_count);\r\n    uint[] memory levels = new uint[](_count);\r\n    \r\n    // Initialize with first zombies\r\n    uint found = 0;\r\n    for (uint i = 0; i < zombies.length && found < _count; i++) {\r\n      topZombies[found] = i;\r\n      levels[found] = zombies[i].level;\r\n      found++;\r\n    }\r\n    \r\n    // Sort by level (simple bubble sort for small arrays)\r\n    for (uint x = 0; x < found - 1; x++) {\r\n      for (uint y = 0; y < found - x - 1; y++) {\r\n        if (levels[y] < levels[y + 1]) {\r\n          // Swap levels\r\n          uint tempLevel = levels[y];\r\n          levels[y] = levels[y + 1];\r\n          levels[y + 1] = tempLevel;\r\n          \r\n          // Swap zombie IDs\r\n          uint tempId = topZombies[y];\r\n          topZombies[y] = topZombies[y + 1];\r\n          topZombies[y + 1] = tempId;\r\n        }\r\n      }\r\n    }\r\n    \r\n    return topZombies;\r\n  }\r\n\r\n  function getTopZombiesByWins(uint _count) external view returns(uint[]) {\r\n    require(_count > 0 && _count <= 100);\r\n    \r\n    uint[] memory topZombies = new uint[](_count);\r\n    uint[] memory wins = new uint[](_count);\r\n    \r\n    uint found = 0;\r\n    for (uint i = 0; i < zombies.length && found < _count; i++) {\r\n      topZombies[found] = i;\r\n      wins[found] = zombies[i].winCount;\r\n      found++;\r\n    }\r\n    \r\n    // Sort by win count\r\n    for (uint x = 0; x < found - 1; x++) {\r\n      for (uint y = 0; y < found - x - 1; y++) {\r\n        if (wins[y] < wins[y + 1]) {\r\n          uint tempWins = wins[y];\r\n          wins[y] = wins[y + 1];\r\n          wins[y + 1] = tempWins;\r\n          \r\n          uint tempId = topZombies[y];\r\n          topZombies[y] = topZombies[y + 1];\r\n          topZombies[y + 1] = tempId;\r\n        }\r\n      }\r\n    }\r\n    \r\n    return topZombies;\r\n  }\r\n\r\n}\r\n",
  "sourcePath": "D:\\MSCS\\Blockchain\\Project\\Cryptozombie DApp\\contracts\\zombiehelper.sol",
  "compiler": {
    "name": "solc",
    "version": "0.4.25+commit.59dbf8f1.Emscripten.clang"
  },
  "schemaVersion": "3.4.16",
  "updatedAt": "2026-03-15T13:40:53.531Z",
  "networkType": "ethereum",
  "devdoc": {
    "methods": {
      "isOwner()": {
        "return": "true if `msg.sender` is the owner of the contract."
      },
      "owner()": {
        "return": "the address of the owner."
      },
      "renounceOwnership()": {
        "details": "Allows the current owner to relinquish control of the contract."
      },
      "transferOwnership(address)": {
        "details": "Allows the current owner to transfer control of the contract to a newOwner.",
        "params": {
          "newOwner": "The address to transfer ownership to."
        }
      }
    }
  },
  "userdoc": {
    "methods": {
      "renounceOwnership()": {
        "notice": "Renouncing to ownership will leave the contract without an owner. It will not be possible to call the functions with the `onlyOwner` modifier anymore."
      }
    }
  }
}