{
  "contractName": "ZombieMarketplace",
  "abi": [
    {
      "constant": false,
      "inputs": [
        {
          "name": "_approved",
          "type": "address"
        },
        {
          "name": "_tokenId",
          "type": "uint256"
        }
      ],
      "name": "approve",
      "outputs": [],
      "payable": true,
      "stateMutability": "payable",
      "type": "function"
    },
    {
      "constant": false,
      "inputs": [
        {
          "name": "_zombieId",
          "type": "uint256"
        }
      ],
      "name": "levelUp",
      "outputs": [],
      "payable": true,
      "stateMutability": "payable",
      "type": "function"
    },
    {
      "constant": false,
      "inputs": [
        {
          "name": "_zombieId",
          "type": "uint256"
        },
        {
          "name": "_kittyId",
          "type": "uint256"
        }
      ],
      "name": "feedOnKitty",
      "outputs": [],
      "payable": false,
      "stateMutability": "nonpayable",
      "type": "function"
    },
    {
      "constant": true,
      "inputs": [
        {
          "name": "",
          "type": "uint256"
        }
      ],
      "name": "zombies",
      "outputs": [
        {
          "name": "name",
          "type": "string"
        },
        {
          "name": "dna",
          "type": "uint256"
        },
        {
          "name": "level",
          "type": "uint32"
        },
        {
          "name": "readyTime",
          "type": "uint32"
        },
        {
          "name": "winCount",
          "type": "uint16"
        },
        {
          "name": "lossCount",
          "type": "uint16"
        }
      ],
      "payable": false,
      "stateMutability": "view",
      "type": "function"
    },
    {
      "constant": false,
      "inputs": [
        {
          "name": "_from",
          "type": "address"
        },
        {
          "name": "_to",
          "type": "address"
        },
        {
          "name": "_tokenId",
          "type": "uint256"
        }
      ],
      "name": "transferFrom",
      "outputs": [],
      "payable": true,
      "stateMutability": "payable",
      "type": "function"
    },
    {
      "constant": false,
      "inputs": [],
      "name": "withdraw",
      "outputs": [],
      "payable": false,
      "stateMutability": "nonpayable",
      "type": "function"
    },
    {
      "constant": true,
      "inputs": [
        {
          "name": "_owner",
          "type": "address"
        }
      ],
      "name": "getZombiesByOwner",
      "outputs": [
        {
          "name": "",
          "type": "uint256[]"
        }
      ],
      "payable": false,
      "stateMutability": "view",
      "type": "function"
    },
    {
      "constant": true,
      "inputs": [
        {
          "name": "_count",
          "type": "uint256"
        }
      ],
      "name": "getTopZombiesByWins",
      "outputs": [
        {
          "name": "",
          "type": "uint256[]"
        }
      ],
      "payable": false,
      "stateMutability": "view",
      "type": "function"
    },
    {
      "constant": true,
      "inputs": [
        {
          "name": "",
          "type": "uint256"
        }
      ],
      "name": "zombieToOwner",
      "outputs": [
        {
          "name": "",
          "type": "address"
        }
      ],
      "payable": false,
      "stateMutability": "view",
      "type": "function"
    },
    {
      "constant": false,
      "inputs": [
        {
          "name": "_address",
          "type": "address"
        }
      ],
      "name": "setKittyContractAddress",
      "outputs": [],
      "payable": false,
      "stateMutability": "nonpayable",
      "type": "function"
    },
    {
      "constant": false,
      "inputs": [
        {
          "name": "_zombieId",
          "type": "uint256"
        },
        {
          "name": "_newDna",
          "type": "uint256"
        }
      ],
      "name": "changeDna",
      "outputs": [],
      "payable": false,
      "stateMutability": "nonpayable",
      "type": "function"
    },
    {
      "constant": true,
      "inputs": [
        {
          "name": "",
          "type": "uint256"
        }
      ],
      "name": "activeListings",
      "outputs": [
        {
          "name": "",
          "type": "uint256"
        }
      ],
      "payable": false,
      "stateMutability": "view",
      "type": "function"
    },
    {
      "constant": true,
      "inputs": [
        {
          "name": "_tokenId",
          "type": "uint256"
        }
      ],
      "name": "ownerOf",
      "outputs": [
        {
          "name": "",
          "type": "address"
        }
      ],
      "payable": false,
      "stateMutability": "view",
      "type": "function"
    },
    {
      "constant": true,
      "inputs": [
        {
          "name": "_owner",
          "type": "address"
        }
      ],
      "name": "balanceOf",
      "outputs": [
        {
          "name": "",
          "type": "uint256"
        }
      ],
      "payable": false,
      "stateMutability": "view",
      "type": "function"
    },
    {
      "constant": false,
      "inputs": [],
      "name": "renounceOwnership",
      "outputs": [],
      "payable": false,
      "stateMutability": "nonpayable",
      "type": "function"
    },
    {
      "constant": false,
      "inputs": [
        {
          "name": "_name",
          "type": "string"
        }
      ],
      "name": "createRandomZombie",
      "outputs": [],
      "payable": false,
      "stateMutability": "nonpayable",
      "type": "function"
    },
    {
      "constant": true,
      "inputs": [
        {
          "name": "_count",
          "type": "uint256"
        }
      ],
      "name": "getTopZombiesByLevel",
      "outputs": [
        {
          "name": "",
          "type": "uint256[]"
        }
      ],
      "payable": false,
      "stateMutability": "view",
      "type": "function"
    },
    {
      "constant": true,
      "inputs": [],
      "name": "owner",
      "outputs": [
        {
          "name": "",
          "type": "address"
        }
      ],
      "payable": false,
      "stateMutability": "view",
      "type": "function"
    },
    {
      "constant": true,
      "inputs": [],
      "name": "isOwner",
      "outputs": [
        {
          "name": "",
          "type": "bool"
        }
      ],
      "payable": false,
      "stateMutability": "view",
      "type": "function"
    },
    {
      "constant": false,
      "inputs": [
        {
          "name": "_zombieId",
          "type": "uint256"
        },
        {
          "name": "_newName",
          "type": "string"
        }
      ],
      "name": "changeName",
      "outputs": [],
      "payable": false,
      "stateMutability": "nonpayable",
      "type": "function"
    },
    {
      "constant": false,
      "inputs": [
        {
          "name": "_fee",
          "type": "uint256"
        }
      ],
      "name": "setLevelUpFee",
      "outputs": [],
      "payable": false,
      "stateMutability": "nonpayable",
      "type": "function"
    },
    {
      "constant": true,
      "inputs": [
        {
          "name": "",
          "type": "uint256"
        }
      ],
      "name": "listings",
      "outputs": [
        {
          "name": "zombieId",
          "type": "uint256"
        },
        {
          "name": "seller",
          "type": "address"
        },
        {
          "name": "price",
          "type": "uint256"
        },
        {
          "name": "active",
          "type": "bool"
        }
      ],
      "payable": false,
      "stateMutability": "view",
      "type": "function"
    },
    {
      "constant": false,
      "inputs": [
        {
          "name": "_zombieId",
          "type": "uint256"
        },
        {
          "name": "_targetId",
          "type": "uint256"
        }
      ],
      "name": "attack",
      "outputs": [],
      "payable": false,
      "stateMutability": "nonpayable",
      "type": "function"
    },
    {
      "constant": false,
      "inputs": [
        {
          "name": "newOwner",
          "type": "address"
        }
      ],
      "name": "transferOwnership",
      "outputs": [],
      "payable": false,
      "stateMutability": "nonpayable",
      "type": "function"
    },
    {
      "anonymous": false,
      "inputs": [
        {
          "indexed": true,
          "name": "zombieId",
          "type": "uint256"
        },
        {
          "indexed": true,
          "name": "seller",
          "type": "address"
        },
        {
          "indexed": false,
          "name": "price",
          "type": "uint256"
        }
      ],
      "name": "ZombieListed",
      "type": "event"
    },
    {
      "anonymous": false,
      "inputs": [
        {
          "indexed": true,
          "name": "zombieId",
          "type": "uint256"
        },
        {
          "indexed": true,
          "name": "seller",
          "type": "address"
        },
        {
          "indexed": true,
          "name": "buyer",
          "type": "address"
        },
        {
          "indexed": false,
          "name": "price",
          "type": "uint256"
        }
      ],
      "name": "ZombieSold",
      "type": "event"
    },
    {
      "anonymous": false,
      "inputs": [
        {
          "indexed": true,
          "name": "zombieId",
          "type": "uint256"
        },
        {
          "indexed": true,
          "name": "seller",
          "type": "address"
        }
      ],
      "name": "ListingCancelled",
      "type": "event"
    },
    {
      "anonymous": false,
      "inputs": [
        {
          "indexed": true,
          "name": "_from",
          "type": "address"
        },
        {
          "indexed": true,
          "name": "_to",
          "type": "address"
        },
        {
          "indexed": true,
          "name": "_tokenId",
          "type": "uint256"
        }
      ],
      "name": "Transfer",
      "type": "event"
    },
    {
      "anonymous": false,
      "inputs": [
        {
          "indexed": true,
          "name": "_owner",
          "type": "address"
        },
        {
          "indexed": true,
          "name": "_approved",
          "type": "address"
        },
        {
          "indexed": true,
          "name": "_tokenId",
          "type": "uint256"
        }
      ],
      "name": "Approval",
      "type": "event"
    },
    {
      "anonymous": false,
      "inputs": [
        {
          "indexed": false,
          "name": "zombieId",
          "type": "uint256"
        },
        {
          "indexed": false,
          "name": "name",
          "type": "string"
        },
        {
          "indexed": false,
          "name": "dna",
          "type": "uint256"
        }
      ],
      "name": "NewZombie",
      "type": "event"
    },
    {
      "anonymous": false,
      "inputs": [
        {
          "indexed": true,
          "name": "previousOwner",
          "type": "address"
        },
        {
          "indexed": true,
          "name": "newOwner",
          "type": "address"
        }
      ],
      "name": "OwnershipTransferred",
      "type": "event"
    },
    {
      "constant": false,
      "inputs": [
        {
          "name": "_zombieId",
          "type": "uint256"
        },
        {
          "name": "_price",
          "type": "uint256"
        }
      ],
      "name": "listZombie",
      "outputs": [],
      "payable": false,
      "stateMutability": "nonpayable",
      "type": "function"
    },
    {
      "constant": false,
      "inputs": [
        {
          "name": "_zombieId",
          "type": "uint256"
        }
      ],
      "name": "buyZombie",
      "outputs": [],
      "payable": true,
      "stateMutability": "payable",
      "type": "function"
    },
    {
      "constant": false,
      "inputs": [
        {
          "name": "_zombieId",
          "type": "uint256"
        }
      ],
      "name": "cancelListing",
      "outputs": [],
      "payable": false,
      "stateMutability": "nonpayable",
      "type": "function"
    },
    {
      "constant": true,
      "inputs": [],
      "name": "getActiveListings",
      "outputs": [
        {
          "name": "",
          "type": "uint256[]"
        }
      ],
      "payable": false,
      "stateMutability": "view",
      "type": "function"
    },
    {
      "constant": true,
      "inputs": [
        {
          "name": "_zombieId",
          "type": "uint256"
        }
      ],
      "name": "getListing",
      "outputs": [
        {
          "name": "",
          "type": "uint256"
        },
        {
          "name": "",
          "type": "address"
        },
        {
          "name": "",
          "type": "uint256"
        },
        {
          "name": "",
          "type": "bool"
        }
      ],
      "payable": false,
      "stateMutability": "view",
      "type": "function"
    },
    {
      "constant": true,
      "inputs": [],
      "name": "getMarketStats",
      "outputs": [
        {
          "name": "",
          "type": "uint256"
        },
        {
          "name": "",
          "type": "uint256"
        }
      ],
      "payable": false,
      "stateMutability": "view",
      "type": "function"
    }
  ],
  "bytecode": "0x60806040526010600155600154600a0a6002556201518060035566038d7ea4c6800060085560006009556046600a55336000806101000a81548173ffffffffffffffffffffffffffffffffffffffff021916908373ffffffffffffffffffffffffffffffffffffffff1602179055506000809054906101000a900473ffffffffffffffffffffffffffffffffffffffff1673ffffffffffffffffffffffffffffffffffffffff16600073ffffffffffffffffffffffffffffffffffffffff167f8be0079c531659141344cd1fd0a4f28419497f9722a3daafe3b4186f6b6457e060405160405180910390a3613600806100f96000396000f300608060405260043610610180576000357c0100000000000000000000000000000000000000000000000000000000900463ffffffff168063095ea7b3146101855780630ce90ec2146101c5578063107a274a146101e557806317a7f4cc1461026b5780632052465e146102a257806323b872dd14610393578063305a67a8146103f35780633ccfd60b146104205780634412e104146104375780634a3022d7146104cf578063528b7b8f146105515780635f4623f1146105be5780635faf28801461060157806361cf4863146106385780636352211e1461067957806370a08231146106e6578063715018a61461073d5780637bff0a0114610754578063809bd2af146107bd57806387c35bc01461083f5780638da5cb5b146108ab5780638f32d59b14610902578063b92e2d7414610931578063c39cbef114610951578063ccf670f814610996578063de74e57b146109c3578063e1fa763814610a49578063e7f6f15d14610a80578063f2fde38b14610ab7578063ff4cd5b914610afa575b600080fd5b6101c3600480360381019080803573ffffffffffffffffffffffffffffffffffffffff16906020019092919080359060200190929190505050610b2c565b005b6101e360048036038101908080359060200190929190505050610c4c565b005b3480156101f157600080fd5b5061021060048036038101908080359060200190929190505050610ce7565b604051808581526020018473ffffffffffffffffffffffffffffffffffffffff1673ffffffffffffffffffffffffffffffffffffffff1681526020018381526020018215151515815260200194505050505060405180910390f35b34801561027757600080fd5b506102a06004803603810190808035906020019092919080359060200190929190505050610d55565b005b3480156102ae57600080fd5b506102cd60048036038101908080359060200190929190505050610efe565b60405180806020018781526020018663ffffffff1663ffffffff1681526020018563ffffffff1663ffffffff1681526020018461ffff1661ffff1681526020018361ffff1661ffff168152602001828103825288818151815260200191508051906020019080838360005b83811015610353578082015181840152602081019050610338565b50505050905090810190601f1680156103805780820380516001836020036101000a031916815260200191505b5097505050505050505060405180910390f35b6103f1600480360381019080803573ffffffffffffffffffffffffffffffffffffffff169060200190929190803573ffffffffffffffffffffffffffffffffffffffff1690602001909291908035906020019092919050505061101d565b005b3480156103ff57600080fd5b5061041e60048036038101908080359060200190929190505050611103565b005b34801561042c57600080fd5b506104356112d5565b005b34801561044357600080fd5b50610478600480360381019080803573ffffffffffffffffffffffffffffffffffffffff169060200190929190505050611355565b6040518080602001828103825283818151815260200191508051906020019060200280838360005b838110156104bb5780820151818401526020810190506104a0565b505050509050019250505060405180910390f35b3480156104db57600080fd5b506104fa60048036038101908080359060200190929190505050611487565b6040518080602001828103825283818151815260200191508051906020019060200280838360005b8381101561053d578082015181840152602081019050610522565b505050509050019250505060405180910390f35b34801561055d57600080fd5b5061057c6004803603810190808035906020019092919050505061171f565b604051808273ffffffffffffffffffffffffffffffffffffffff1673ffffffffffffffffffffffffffffffffffffffff16815260200191505060405180910390f35b3480156105ca57600080fd5b506105ff600480360381019080803573ffffffffffffffffffffffffffffffffffffffff169060200190929190505050611752565b005b34801561060d57600080fd5b5061063660048036038101908080359060200190929190803590602001909291905050506117a9565b005b34801561064457600080fd5b506106636004803603810190808035906020019092919050505061188b565b6040518082815260200191505060405180910390f35b34801561068557600080fd5b506106a4600480360381019080803590602001909291905050506118ae565b604051808273ffffffffffffffffffffffffffffffffffffffff1673ffffffffffffffffffffffffffffffffffffffff16815260200191505060405180910390f35b3480156106f257600080fd5b50610727600480360381019080803573ffffffffffffffffffffffffffffffffffffffff1690602001909291905050506118eb565b6040518082815260200191505060405180910390f35b34801561074957600080fd5b50610752611934565b005b34801561076057600080fd5b506107bb600480360381019080803590602001908201803590602001908080601f0160208091040260200160405190810160405280939291908181526020018383808284378201915050505050509192919290505050611a06565b005b3480156107c957600080fd5b506107e860048036038101908080359060200190929190505050611a32565b6040518080602001828103825283818151815260200191508051906020019060200280838360005b8381101561082b578082015181840152602081019050610810565b505050509050019250505060405180910390f35b34801561084b57600080fd5b50610854611cce565b6040518080602001828103825283818151815260200191508051906020019060200280838360005b8381101561089757808201518184015260208101905061087c565b505050509050019250505060405180910390f35b3480156108b757600080fd5b506108c0611d26565b604051808273ffffffffffffffffffffffffffffffffffffffff1673ffffffffffffffffffffffffffffffffffffffff16815260200191505060405180910390f35b34801561090e57600080fd5b50610917611d4f565b604051808215151515815260200191505060405180910390f35b61094f60048036038101908080359060200190929190505050611da6565b005b34801561095d57600080fd5b5061099460048036038101908080359060200190929190803590602001908201803590602001919091929391929390505050612137565b005b3480156109a257600080fd5b506109c160048036038101908080359060200190929190505050612225565b005b3480156109cf57600080fd5b506109ee60048036038101908080359060200190929190505050612242565b604051808581526020018473ffffffffffffffffffffffffffffffffffffffff1673ffffffffffffffffffffffffffffffffffffffff1681526020018381526020018215151515815260200194505050505060405180910390f35b348015610a5557600080fd5b50610a7e600480360381019080803590602001909291908035906020019092919050505061229f565b005b348015610a8c57600080fd5b50610ab56004803603810190808035906020019092919080359060200190929190505050612532565b005b348015610ac357600080fd5b50610af8600480360381019080803573ffffffffffffffffffffffffffffffffffffffff1690602001909291905050506127fd565b005b348015610b0657600080fd5b50610b0f61281c565b604051808381526020018281526020019250505060405180910390f35b806005600082815260200190815260200160002060009054906101000a900473ffffffffffffffffffffffffffffffffffffffff1673ffffffffffffffffffffffffffffffffffffffff163373ffffffffffffffffffffffffffffffffffffffff16141515610b9a57600080fd5b82600b600084815260200190815260200160002060006101000a81548173ffffffffffffffffffffffffffffffffffffffff021916908373ffffffffffffffffffffffffffffffffffffffff160217905550818373ffffffffffffffffffffffffffffffffffffffff163373ffffffffffffffffffffffffffffffffffffffff167f8c5be1e5ebec7d5bd14f71427d1e84f3dd0314c0f7b2291e5b200ac8c7c3b92560405160405180910390a4505050565b60085434141515610c5c57600080fd5b610ca66001600483815481101515610c7057fe5b906000526020600020906003020160020160009054906101000a900463ffffffff1663ffffffff166128c390919063ffffffff16565b600482815481101515610cb557fe5b906000526020600020906003020160020160006101000a81548163ffffffff021916908363ffffffff16021790555050565b6000806000806000600c6000878152602001908152602001600020905080600001548160010160009054906101000a900473ffffffffffffffffffffffffffffffffffffffff1682600201548360030160009054906101000a900460ff169450945094509450509193509193565b6000600760009054906101000a900473ffffffffffffffffffffffffffffffffffffffff1673ffffffffffffffffffffffffffffffffffffffff1663e98b7f4d836040518263ffffffff167c01000000000000000000000000000000000000000000000000000000000281526004018082815260200191505061014060405180830381600087803b158015610de957600080fd5b505af1158015610dfd573d6000803e3d6000fd5b505050506040513d610140811015610e1457600080fd5b810190808051906020019092919080519060200190929190805190602001909291908051906020019092919080519060200190929190805190602001909291908051906020019092919080519060200190929190805190602001909291908051906020019092919050505090919293949596979850909192939495969750909192939495965090919293949550909192939450909192935090919250909150905080915050610ef983826040805190810160405280600581526020017f6b697474790000000000000000000000000000000000000000000000000000008152506128ed565b505050565b600481815481101515610f0d57fe5b9060005260206000209060030201600091509050806000018054600181600116156101000203166002900480601f016020809104026020016040519081016040528092919081815260200182805460018160011615610100020316600290048015610fb95780601f10610f8e57610100808354040283529160200191610fb9565b820191906000526020600020905b815481529060010190602001808311610f9c57829003601f168201915b5050505050908060010154908060020160009054906101000a900463ffffffff16908060020160049054906101000a900463ffffffff16908060020160089054906101000a900461ffff169080600201600a9054906101000a900461ffff16905086565b3373ffffffffffffffffffffffffffffffffffffffff166005600083815260200190815260200160002060009054906101000a900473ffffffffffffffffffffffffffffffffffffffff1673ffffffffffffffffffffffffffffffffffffffff1614806110e857503373ffffffffffffffffffffffffffffffffffffffff16600b600083815260200190815260200160002060009054906101000a900473ffffffffffffffffffffffffffffffffffffffff1673ffffffffffffffffffffffffffffffffffffffff16145b15156110f357600080fd5b6110fe838383612b9a565b505050565b6000600c600083815260200190815260200160002090508060030160009054906101000a900460ff1615156111a0576040517f08c379a00000000000000000000000000000000000000000000000000000000081526004018080602001828103825260118152602001807f5a6f6d626965206e6f74206c697374656400000000000000000000000000000081525060200191505060405180910390fd5b3373ffffffffffffffffffffffffffffffffffffffff168160010160009054906101000a900473ffffffffffffffffffffffffffffffffffffffff1673ffffffffffffffffffffffffffffffffffffffff16141515611267576040517f08c379a000000000000000000000000000000000000000000000000000000000815260040180806020018281038252600e8152602001807f4e6f74207468652073656c6c657200000000000000000000000000000000000081525060200191505060405180910390fd5b60008160030160006101000a81548160ff02191690831515021790555061128d82612d78565b3373ffffffffffffffffffffffffffffffffffffffff16827f8e25282255ab31897df2b0456bb993ac7f84d376861aefd84901d2d63a7428a260405160405180910390a35050565b60006112df611d4f565b15156112ea57600080fd5b6112f2611d26565b90508073ffffffffffffffffffffffffffffffffffffffff166108fc3073ffffffffffffffffffffffffffffffffffffffff16319081150290604051600060405180830381858888f19350505050158015611351573d6000803e3d6000fd5b5050565b606080600080600660008673ffffffffffffffffffffffffffffffffffffffff1673ffffffffffffffffffffffffffffffffffffffff168152602001908152602001600020546040519080825280602002602001820160405280156113c95781602001602082028038833980820191505090505b50925060009150600090505b60048054905081101561147c578473ffffffffffffffffffffffffffffffffffffffff166005600083815260200190815260200160002060009054906101000a900473ffffffffffffffffffffffffffffffffffffffff1673ffffffffffffffffffffffffffffffffffffffff16141561146f5780838381518110151561145857fe5b906020019060200201818152505081806001019250505b80806001019150506113d5565b829350505050919050565b606080606060008060008060008060008a1180156114a6575060648a11155b15156114b157600080fd5b896040519080825280602002602001820160405280156114e05781602001602082028038833980820191505090505b509750896040519080825280602002602001820160405280156115125781602001602082028038833980820191505090505b50965060009550600094505b6004805490508510801561153157508986105b156115b75784888781518110151561154557fe5b906020019060200201818152505060048581548110151561156257fe5b906000526020600020906003020160020160089054906101000a900461ffff1661ffff16878781518110151561159457fe5b90602001906020020181815250508580600101965050848060010195505061151e565b600093505b6001860384101561170f57600092505b6001848703038310156117025786600184018151811015156115ea57fe5b90602001906020020151878481518110151561160257fe5b9060200190602002015110156116f557868381518110151561162057fe5b906020019060200201519150866001840181518110151561163d57fe5b90602001906020020151878481518110151561165557fe5b906020019060200201818152505081876001850181518110151561167557fe5b9060200190602002018181525050878381518110151561169157fe5b90602001906020020151905087600184018151811015156116ae57fe5b9060200190602002015188848151811015156116c657fe5b90602001906020020181815250508088600185018151811015156116e657fe5b90602001906020020181815250505b82806001019350506115cc565b83806001019450506115bc565b8798505050505050505050919050565b60056020528060005260406000206000915054906101000a900473ffffffffffffffffffffffffffffffffffffffff1681565b61175a611d4f565b151561176557600080fd5b80600760006101000a81548173ffffffffffffffffffffffffffffffffffffffff021916908373ffffffffffffffffffffffffffffffffffffffff16021790555050565b601482816004828154811015156117bc57fe5b906000526020600020906003020160020160009054906101000a900463ffffffff1663ffffffff16101515156117f157600080fd5b836005600082815260200190815260200160002060009054906101000a900473ffffffffffffffffffffffffffffffffffffffff1673ffffffffffffffffffffffffffffffffffffffff163373ffffffffffffffffffffffffffffffffffffffff1614151561185f57600080fd5b8360048681548110151561186f57fe5b9060005260206000209060030201600101819055505050505050565b600d8181548110151561189a57fe5b906000526020600020016000915090505481565b60006005600083815260200190815260200160002060009054906101000a900473ffffffffffffffffffffffffffffffffffffffff169050919050565b6000600660008373ffffffffffffffffffffffffffffffffffffffff1673ffffffffffffffffffffffffffffffffffffffff168152602001908152602001600020549050919050565b61193c611d4f565b151561194757600080fd5b600073ffffffffffffffffffffffffffffffffffffffff166000809054906101000a900473ffffffffffffffffffffffffffffffffffffffff1673ffffffffffffffffffffffffffffffffffffffff167f8be0079c531659141344cd1fd0a4f28419497f9722a3daafe3b4186f6b6457e060405160405180910390a360008060006101000a81548173ffffffffffffffffffffffffffffffffffffffff021916908373ffffffffffffffffffffffffffffffffffffffff160217905550565b6000611a1182612e17565b9050606481811515611a1f57fe5b0681039050611a2e8282612f05565b5050565b606080606060008060008060008060008a118015611a51575060648a11155b1515611a5c57600080fd5b89604051908082528060200260200182016040528015611a8b5781602001602082028038833980820191505090505b50975089604051908082528060200260200182016040528015611abd5781602001602082028038833980820191505090505b50965060009550600094505b60048054905085108015611adc57508986105b15611b6657848887815181101515611af057fe5b9060200190602002018181525050600485815481101515611b0d57fe5b906000526020600020906003020160020160009054906101000a900463ffffffff1663ffffffff168787815181101515611b4357fe5b906020019060200201818152505085806001019650508480600101955050611ac9565b600093505b60018603841015611cbe57600092505b600184870303831015611cb1578660018401815181101515611b9957fe5b906020019060200201518784815181101515611bb157fe5b906020019060200201511015611ca4578683815181101515611bcf57fe5b9060200190602002015191508660018401815181101515611bec57fe5b906020019060200201518784815181101515611c0457fe5b9060200190602002018181525050818760018501815181101515611c2457fe5b90602001906020020181815250508783815181101515611c4057fe5b9060200190602002015190508760018401815181101515611c5d57fe5b906020019060200201518884815181101515611c7557fe5b9060200190602002018181525050808860018501815181101515611c9557fe5b90602001906020020181815250505b8280600101935050611b7b565b8380600101945050611b6b565b8798505050505050505050919050565b6060600d805480602002602001604051908101604052809291908181526020018280548015611d1c57602002820191906000526020600020905b815481526020019060010190808311611d08575b5050505050905090565b60008060009054906101000a900473ffffffffffffffffffffffffffffffffffffffff16905090565b60008060009054906101000a900473ffffffffffffffffffffffffffffffffffffffff1673ffffffffffffffffffffffffffffffffffffffff163373ffffffffffffffffffffffffffffffffffffffff1614905090565b6000600c600083815260200190815260200160002090508060030160009054906101000a900460ff161515611e43576040517f08c379a000000000000000000000000000000000000000000000000000000000815260040180806020018281038252601a8152602001807f5a6f6d626965206e6f74206c697374656420666f722073616c6500000000000081525060200191505060405180910390fd5b80600201543410151515611ebf576040517f08c379a00000000000000000000000000000000000000000000000000000000081526004018080602001828103825260148152602001807f496e73756666696369656e74207061796d656e7400000000000000000000000081525060200191505060405180910390fd5b8060010160009054906101000a900473ffffffffffffffffffffffffffffffffffffffff1673ffffffffffffffffffffffffffffffffffffffff163373ffffffffffffffffffffffffffffffffffffffff1614151515611f87576040517f08c379a000000000000000000000000000000000000000000000000000000000815260040180806020018281038252601a8152602001807f43616e6e6f742062757920796f7572206f776e207a6f6d62696500000000000081525060200191505060405180910390fd5b611fb68160010160009054906101000a900473ffffffffffffffffffffffffffffffffffffffff163384612b9a565b8060010160009054906101000a900473ffffffffffffffffffffffffffffffffffffffff1673ffffffffffffffffffffffffffffffffffffffff166108fc82600201549081150290604051600060405180830381858888f19350505050158015612024573d6000803e3d6000fd5b50806002015434111561207f573373ffffffffffffffffffffffffffffffffffffffff166108fc826002015434039081150290604051600060405180830381858888f1935050505015801561207d573d6000803e3d6000fd5b505b60008160030160006101000a81548160ff0219169083151502179055506120a582612d78565b3373ffffffffffffffffffffffffffffffffffffffff168160010160009054906101000a900473ffffffffffffffffffffffffffffffffffffffff1673ffffffffffffffffffffffffffffffffffffffff16837fa52a24d026f5b34fed175ff62d1bcaa546727ad17353c5cb027974a0d2f91bf484600201546040518082815260200191505060405180910390a45050565b6002838160048281548110151561214a57fe5b906000526020600020906003020160020160009054906101000a900463ffffffff1663ffffffff161015151561217f57600080fd5b846005600082815260200190815260200160002060009054906101000a900473ffffffffffffffffffffffffffffffffffffffff1673ffffffffffffffffffffffffffffffffffffffff163373ffffffffffffffffffffffffffffffffffffffff161415156121ed57600080fd5b84846004888154811015156121fe57fe5b9060005260206000209060030201600001919061221c929190613483565b50505050505050565b61222d611d4f565b151561223857600080fd5b8060088190555050565b600c6020528060005260406000206000915090508060000154908060010160009054906101000a900473ffffffffffffffffffffffffffffffffffffffff16908060020154908060030160009054906101000a900460ff16905084565b6000806000846005600082815260200190815260200160002060009054906101000a900473ffffffffffffffffffffffffffffffffffffffff1673ffffffffffffffffffffffffffffffffffffffff163373ffffffffffffffffffffffffffffffffffffffff1614151561231257600080fd5b60048681548110151561232157fe5b9060005260206000209060030201935060048581548110151561234057fe5b9060005260206000209060030201925061235a60646131d8565b9150600a54821115156124905761239160018560020160089054906101000a900461ffff1661ffff166132db90919063ffffffff16565b8460020160086101000a81548161ffff021916908361ffff1602179055506123dd60018560020160009054906101000a900463ffffffff1663ffffffff166128c390919063ffffffff16565b8460020160006101000a81548163ffffffff021916908363ffffffff160217905550612429600184600201600a9054906101000a900461ffff1661ffff166132db90919063ffffffff16565b83600201600a6101000a81548161ffff021916908361ffff16021790555061248b8684600101546040805190810160405280600681526020017f7a6f6d62696500000000000000000000000000000000000000000000000000008152506128ed565b61252a565b6124ba600185600201600a9054906101000a900461ffff1661ffff166132db90919063ffffffff16565b84600201600a6101000a81548161ffff021916908361ffff16021790555061250260018460020160089054906101000a900461ffff1661ffff166132db90919063ffffffff16565b8360020160086101000a81548161ffff021916908361ffff16021790555061252984613301565b5b505050505050565b816005600082815260200190815260200160002060009054906101000a900473ffffffffffffffffffffffffffffffffffffffff1673ffffffffffffffffffffffffffffffffffffffff163373ffffffffffffffffffffffffffffffffffffffff161415156125a057600080fd5b600082111515612618576040517f08c379a000000000000000000000000000000000000000000000000000000000815260040180806020018281038252601c8152602001807f5072696365206d7573742062652067726561746572207468616e20300000000081525060200191505060405180910390fd5b600c600084815260200190815260200160002060030160009054906101000a900460ff161515156126b1576040517f08c379a00000000000000000000000000000000000000000000000000000000081526004018080602001828103825260158152602001807f5a6f6d62696520616c7265616479206c6973746564000000000000000000000081525060200191505060405180910390fd5b6080604051908101604052808481526020013373ffffffffffffffffffffffffffffffffffffffff16815260200183815260200160011515815250600c60008581526020019081526020016000206000820151816000015560208201518160010160006101000a81548173ffffffffffffffffffffffffffffffffffffffff021916908373ffffffffffffffffffffffffffffffffffffffff1602179055506040820151816002015560608201518160030160006101000a81548160ff021916908315150217905550905050600d8390806001815401808255809150509060018203906000526020600020016000909192909190915055503373ffffffffffffffffffffffffffffffffffffffff16837f76cafae57ae500024885b2b2ecd0d194cb1b22f2958c905059207be8d60a4e5e846040518082815260200191505060405180910390a3505050565b612805611d4f565b151561281057600080fd5b6128198161332b565b50565b6000806000806000806000935060009250600091505b600d805490508210156128b557600d8281548110151561284e57fe5b90600052602060002001549050600c600082815260200190815260200160002060030160009054906101000a900460ff16156128a8578280600101935050600c600082815260200190815260200160002060020154840193505b8180600101925050612832565b828495509550505050509091565b60008082840190508363ffffffff168163ffffffff16101515156128e357fe5b8091505092915050565b600080846005600082815260200190815260200160002060009054906101000a900473ffffffffffffffffffffffffffffffffffffffff1673ffffffffffffffffffffffffffffffffffffffff163373ffffffffffffffffffffffffffffffffffffffff1614151561295e57600080fd5b60048681548110151561296d57fe5b9060005260206000209060030201925061298683613425565b151561299157600080fd5b6002548581151561299e57fe5b0694506002858460010154018115156129b357fe5b04915060405160200180807f6b6974747900000000000000000000000000000000000000000000000000000081525060050190506040516020818303038152906040526040518082805190602001908083835b602083101515612a2b5780518252602082019150602081019050602083039250612a06565b6001836020036101000a038019825116818451168082178552505050505050905001915050604051809103902060001916846040516020018082805190602001908083835b602083101515612a955780518252602082019150602081019050602083039250612a70565b6001836020036101000a0380198251168184511680821785525050505050509050019150506040516020818303038152906040526040518082805190602001908083835b602083101515612afe5780518252602082019150602081019050602083039250612ad9565b6001836020036101000a0380198251168184511680821785525050505050509050019150506040518091039020600019161415612b4a576063606483811515612b4357fe5b0683030191505b612b896040805190810160405280600681526020017f4e6f4e616d65000000000000000000000000000000000000000000000000000081525083612f05565b612b9283613301565b505050505050565b612bed6001600660008573ffffffffffffffffffffffffffffffffffffffff1673ffffffffffffffffffffffffffffffffffffffff1681526020019081526020016000205461344c90919063ffffffff16565b600660008473ffffffffffffffffffffffffffffffffffffffff1673ffffffffffffffffffffffffffffffffffffffff16815260200190815260200160002081905550612c836001600660008673ffffffffffffffffffffffffffffffffffffffff1673ffffffffffffffffffffffffffffffffffffffff1681526020019081526020016000205461346a90919063ffffffff16565b600660008573ffffffffffffffffffffffffffffffffffffffff1673ffffffffffffffffffffffffffffffffffffffff16815260200190815260200160002081905550816005600083815260200190815260200160002060006101000a81548173ffffffffffffffffffffffffffffffffffffffff021916908373ffffffffffffffffffffffffffffffffffffffff160217905550808273ffffffffffffffffffffffffffffffffffffffff168473ffffffffffffffffffffffffffffffffffffffff167fddf252ad1be2c89b69c2b068fc378daa952ba7f163c4a11628f55a4df523b3ef60405160405180910390a4505050565b60008090505b600d80549050811015612e135781600d82815481101515612d9b57fe5b90600052602060002001541415612e0657600d6001600d8054905003815481101515612dc357fe5b9060005260206000200154600d82815481101515612ddd57fe5b9060005260206000200181905550600d805480919060019003612e009190613503565b50612e13565b8080600101915050612d7e565b5050565b600080826040516020018082805190602001908083835b602083101515612e535780518252602082019150602081019050602083039250612e2e565b6001836020036101000a0380198251168184511680821785525050505050509050019150506040516020818303038152906040526040518082805190602001908083835b602083101515612ebc5780518252602082019150602081019050602083039250612e97565b6001836020036101000a038019825116818451168082178552505050505050905001915050604051809103902060019004905060025481811515612efc57fe5b06915050919050565b60006001600460c060405190810160405280868152602001858152602001600163ffffffff168152602001600354420163ffffffff168152602001600061ffff168152602001600061ffff16815250908060018154018082558091505090600182039060005260206000209060030201600090919290919091506000820151816000019080519060200190612f9b92919061352f565b506020820151816001015560408201518160020160006101000a81548163ffffffff021916908363ffffffff16021790555060608201518160020160046101000a81548163ffffffff021916908363ffffffff16021790555060808201518160020160086101000a81548161ffff021916908361ffff16021790555060a082015181600201600a6101000a81548161ffff021916908361ffff1602179055505050039050336005600083815260200190815260200160002060006101000a81548173ffffffffffffffffffffffffffffffffffffffff021916908373ffffffffffffffffffffffffffffffffffffffff1602179055506130e46001600660003373ffffffffffffffffffffffffffffffffffffffff1673ffffffffffffffffffffffffffffffffffffffff1681526020019081526020016000205461344c90919063ffffffff16565b600660003373ffffffffffffffffffffffffffffffffffffffff1673ffffffffffffffffffffffffffffffffffffffff168152602001908152602001600020819055507f88f026aacbbecc90c18411df4b1185fd8d9be2470f1962f192bf84a27d0704b78184846040518084815260200180602001838152602001828103825284818151815260200191508051906020019080838360005b8381101561319757808201518184015260208101905061317c565b50505050905090810190601f1680156131c45780820380516001836020036101000a031916815260200191505b5094505050505060405180910390a1505050565b60006131f0600160095461344c90919063ffffffff16565b600981905550814233600954604051602001808481526020018373ffffffffffffffffffffffffffffffffffffffff1673ffffffffffffffffffffffffffffffffffffffff166c0100000000000000000000000002815260140182815260200193505050506040516020818303038152906040526040518082805190602001908083835b6020831015156132995780518252602082019150602081019050602083039250613274565b6001836020036101000a0380198251168184511680821785525050505050509050019150506040518091039020600190048115156132d357fe5b069050919050565b60008082840190508361ffff168161ffff16101515156132f757fe5b8091505092915050565b60035442018160020160046101000a81548163ffffffff021916908363ffffffff16021790555050565b600073ffffffffffffffffffffffffffffffffffffffff168173ffffffffffffffffffffffffffffffffffffffff161415151561336757600080fd5b8073ffffffffffffffffffffffffffffffffffffffff166000809054906101000a900473ffffffffffffffffffffffffffffffffffffffff1673ffffffffffffffffffffffffffffffffffffffff167f8be0079c531659141344cd1fd0a4f28419497f9722a3daafe3b4186f6b6457e060405160405180910390a3806000806101000a81548173ffffffffffffffffffffffffffffffffffffffff021916908373ffffffffffffffffffffffffffffffffffffffff16021790555050565b6000428260020160049054906101000a900463ffffffff1663ffffffff1611159050919050565b600080828401905083811015151561346057fe5b8091505092915050565b600082821115151561347857fe5b818303905092915050565b828054600181600116156101000203166002900490600052602060002090601f016020900481019282601f106134c457803560ff19168380011785556134f2565b828001600101855582156134f2579182015b828111156134f15782358255916020019190600101906134d6565b5b5090506134ff91906135af565b5090565b81548183558181111561352a5781836000526020600020918201910161352991906135af565b5b505050565b828054600181600116156101000203166002900490600052602060002090601f016020900481019282601f1061357057805160ff191683800117855561359e565b8280016001018555821561359e579182015b8281111561359d578251825591602001919060010190613582565b5b5090506135ab91906135af565b5090565b6135d191905b808211156135cd5760008160009055506001016135b5565b5090565b905600a165627a7a723058201ff2ea246feb6b5bd54fcc939fbc28291c35a7530ed8daf96548a7217ecc8eda0029",
  "source": "pragma solidity ^0.4.25;\r\n\r\nimport \"./zombieownership.sol\";\r\n\r\ncontract ZombieMarketplace is ZombieOwnership {\r\n\r\n  struct Listing {\r\n    uint zombieId;\r\n    address seller;\r\n    uint price;\r\n    bool active;\r\n  }\r\n\r\n  mapping (uint => Listing) public listings;\r\n  uint[] public activeListings;\r\n\r\n  event ZombieListed(uint indexed zombieId, address indexed seller, uint price);\r\n  event ZombieSold(uint indexed zombieId, address indexed seller, address indexed buyer, uint price);\r\n  event ListingCancelled(uint indexed zombieId, address indexed seller);\r\n\r\n  // List a zombie for sale\r\n  function listZombie(uint _zombieId, uint _price) external onlyOwnerOf(_zombieId) {\r\n    require(_price > 0, \"Price must be greater than 0\");\r\n    require(!listings[_zombieId].active, \"Zombie already listed\");\r\n\r\n    listings[_zombieId] = Listing({\r\n      zombieId: _zombieId,\r\n      seller: msg.sender,\r\n      price: _price,\r\n      active: true\r\n    });\r\n\r\n    activeListings.push(_zombieId);\r\n    emit ZombieListed(_zombieId, msg.sender, _price);\r\n  }\r\n\r\n  // Buy a listed zombie\r\n  function buyZombie(uint _zombieId) external payable {\r\n    Listing storage listing = listings[_zombieId];\r\n    require(listing.active, \"Zombie not listed for sale\");\r\n    require(msg.value >= listing.price, \"Insufficient payment\");\r\n    require(msg.sender != listing.seller, \"Cannot buy your own zombie\");\r\n\r\n    // Transfer zombie ownership\r\n    _transfer(listing.seller, msg.sender, _zombieId);\r\n\r\n    // Transfer payment to seller\r\n    listing.seller.transfer(listing.price);\r\n\r\n    // Refund excess payment\r\n    if (msg.value > listing.price) {\r\n      msg.sender.transfer(msg.value - listing.price);\r\n    }\r\n\r\n    // Remove from active listings\r\n    listing.active = false;\r\n    _removeFromActiveListings(_zombieId);\r\n\r\n    emit ZombieSold(_zombieId, listing.seller, msg.sender, listing.price);\r\n  }\r\n\r\n  // Cancel a listing\r\n  function cancelListing(uint _zombieId) external {\r\n    Listing storage listing = listings[_zombieId];\r\n    require(listing.active, \"Zombie not listed\");\r\n    require(listing.seller == msg.sender, \"Not the seller\");\r\n\r\n    listing.active = false;\r\n    _removeFromActiveListings(_zombieId);\r\n\r\n    emit ListingCancelled(_zombieId, msg.sender);\r\n  }\r\n\r\n  // Get all active listings\r\n  function getActiveListings() external view returns(uint[]) {\r\n    return activeListings;\r\n  }\r\n\r\n  // Get listing details\r\n  function getListing(uint _zombieId) external view returns(uint, address, uint, bool) {\r\n    Listing storage listing = listings[_zombieId];\r\n    return (listing.zombieId, listing.seller, listing.price, listing.active);\r\n  }\r\n\r\n  // Internal function to remove from active listings array\r\n  function _removeFromActiveListings(uint _zombieId) internal {\r\n    for (uint i = 0; i < activeListings.length; i++) {\r\n      if (activeListings[i] == _zombieId) {\r\n        activeListings[i] = activeListings[activeListings.length - 1];\r\n        activeListings.length--;\r\n        break;\r\n      }\r\n    }\r\n  }\r\n\r\n  // Get marketplace statistics\r\n  function getMarketStats() external view returns(uint, uint) {\r\n    uint totalVolume = 0;\r\n    uint activeCount = 0;\r\n\r\n    for (uint i = 0; i < activeListings.length; i++) {\r\n      uint zombieId = activeListings[i];\r\n      if (listings[zombieId].active) {\r\n        activeCount++;\r\n        totalVolume += listings[zombieId].price;\r\n      }\r\n    }\r\n\r\n    return (activeCount, totalVolume);\r\n  }\r\n}",
  "sourcePath": "C:\\Users\\matheenbaba\\Documents\\GitHub\\cryptozombie-dapp\\contracts\\zombiemarketplace.sol",
  "compiler": {
    "name": "solc",
    "version": "0.4.25+commit.59dbf8f1.Emscripten.clang"
  },
  "schemaVersion": "3.4.4",
  "updatedAt": "2026-03-15T07:16:49.588Z",
  "devdoc": {
    "methods": {
      "isOwner()": {
        "return": "true if `msg.sender` is the owner of the contract.\r"
      },
      "owner()": {
        "return": "the address of the owner.\r"
      },
      "renounceOwnership()": {
        "details": "Allows the current owner to relinquish control of the contract.\r"
      },
      "transferOwnership(address)": {
        "details": "Allows the current owner to transfer control of the contract to a newOwner.\r",
        "params": {
          "newOwner": "The address to transfer ownership to.\r"
        }
      }
    }
  },
  "userdoc": {
    "methods": {
      "renounceOwnership()": {
        "notice": "Renouncing to ownership will leave the contract without an owner.\r It will not be possible to call the functions with the `onlyOwner`\r modifier anymore.\r"
      }
    }
  }
}