{
  "contractName": "ZombieAttack",
  "abi": [
    {
      "constant": false,
      "inputs": [
        {
          "name": "_zombieId",
          "type": "uint256"
        }
      ],
      "name": "levelUp",
      "outputs": [],
      "payable": true,
      "stateMutability": "payable",
      "type": "function"
    },
    {
      "constant": false,
      "inputs": [
        {
          "name": "_zombieId",
          "type": "uint256"
        },
        {
          "name": "_kittyId",
          "type": "uint256"
        }
      ],
      "name": "feedOnKitty",
      "outputs": [],
      "payable": false,
      "stateMutability": "nonpayable",
      "type": "function"
    },
    {
      "constant": true,
      "inputs": [
        {
          "name": "",
          "type": "uint256"
        }
      ],
      "name": "zombies",
      "outputs": [
        {
          "name": "name",
          "type": "string"
        },
        {
          "name": "dna",
          "type": "uint256"
        },
        {
          "name": "level",
          "type": "uint32"
        },
        {
          "name": "readyTime",
          "type": "uint32"
        },
        {
          "name": "winCount",
          "type": "uint16"
        },
        {
          "name": "lossCount",
          "type": "uint16"
        }
      ],
      "payable": false,
      "stateMutability": "view",
      "type": "function"
    },
    {
      "constant": false,
      "inputs": [],
      "name": "withdraw",
      "outputs": [],
      "payable": false,
      "stateMutability": "nonpayable",
      "type": "function"
    },
    {
      "constant": true,
      "inputs": [
        {
          "name": "_owner",
          "type": "address"
        }
      ],
      "name": "getZombiesByOwner",
      "outputs": [
        {
          "name": "",
          "type": "uint256[]"
        }
      ],
      "payable": false,
      "stateMutability": "view",
      "type": "function"
    },
    {
      "constant": true,
      "inputs": [
        {
          "name": "_count",
          "type": "uint256"
        }
      ],
      "name": "getTopZombiesByWins",
      "outputs": [
        {
          "name": "",
          "type": "uint256[]"
        }
      ],
      "payable": false,
      "stateMutability": "view",
      "type": "function"
    },
    {
      "constant": true,
      "inputs": [
        {
          "name": "",
          "type": "uint256"
        }
      ],
      "name": "zombieToOwner",
      "outputs": [
        {
          "name": "",
          "type": "address"
        }
      ],
      "payable": false,
      "stateMutability": "view",
      "type": "function"
    },
    {
      "constant": false,
      "inputs": [
        {
          "name": "_address",
          "type": "address"
        }
      ],
      "name": "setKittyContractAddress",
      "outputs": [],
      "payable": false,
      "stateMutability": "nonpayable",
      "type": "function"
    },
    {
      "constant": false,
      "inputs": [
        {
          "name": "_zombieId",
          "type": "uint256"
        },
        {
          "name": "_newDna",
          "type": "uint256"
        }
      ],
      "name": "changeDna",
      "outputs": [],
      "payable": false,
      "stateMutability": "nonpayable",
      "type": "function"
    },
    {
      "constant": false,
      "inputs": [],
      "name": "renounceOwnership",
      "outputs": [],
      "payable": false,
      "stateMutability": "nonpayable",
      "type": "function"
    },
    {
      "constant": false,
      "inputs": [
        {
          "name": "_name",
          "type": "string"
        }
      ],
      "name": "createRandomZombie",
      "outputs": [],
      "payable": false,
      "stateMutability": "nonpayable",
      "type": "function"
    },
    {
      "constant": true,
      "inputs": [
        {
          "name": "_count",
          "type": "uint256"
        }
      ],
      "name": "getTopZombiesByLevel",
      "outputs": [
        {
          "name": "",
          "type": "uint256[]"
        }
      ],
      "payable": false,
      "stateMutability": "view",
      "type": "function"
    },
    {
      "constant": true,
      "inputs": [],
      "name": "owner",
      "outputs": [
        {
          "name": "",
          "type": "address"
        }
      ],
      "payable": false,
      "stateMutability": "view",
      "type": "function"
    },
    {
      "constant": true,
      "inputs": [],
      "name": "isOwner",
      "outputs": [
        {
          "name": "",
          "type": "bool"
        }
      ],
      "payable": false,
      "stateMutability": "view",
      "type": "function"
    },
    {
      "constant": false,
      "inputs": [
        {
          "name": "_zombieId",
          "type": "uint256"
        },
        {
          "name": "_newName",
          "type": "string"
        }
      ],
      "name": "changeName",
      "outputs": [],
      "payable": false,
      "stateMutability": "nonpayable",
      "type": "function"
    },
    {
      "constant": false,
      "inputs": [
        {
          "name": "_fee",
          "type": "uint256"
        }
      ],
      "name": "setLevelUpFee",
      "outputs": [],
      "payable": false,
      "stateMutability": "nonpayable",
      "type": "function"
    },
    {
      "constant": false,
      "inputs": [
        {
          "name": "newOwner",
          "type": "address"
        }
      ],
      "name": "transferOwnership",
      "outputs": [],
      "payable": false,
      "stateMutability": "nonpayable",
      "type": "function"
    },
    {
      "anonymous": false,
      "inputs": [
        {
          "indexed": false,
          "name": "zombieId",
          "type": "uint256"
        },
        {
          "indexed": false,
          "name": "name",
          "type": "string"
        },
        {
          "indexed": false,
          "name": "dna",
          "type": "uint256"
        }
      ],
      "name": "NewZombie",
      "type": "event"
    },
    {
      "anonymous": false,
      "inputs": [
        {
          "indexed": true,
          "name": "previousOwner",
          "type": "address"
        },
        {
          "indexed": true,
          "name": "newOwner",
          "type": "address"
        }
      ],
      "name": "OwnershipTransferred",
      "type": "event"
    },
    {
      "constant": false,
      "inputs": [
        {
          "name": "_zombieId",
          "type": "uint256"
        },
        {
          "name": "_targetId",
          "type": "uint256"
        }
      ],
      "name": "attack",
      "outputs": [],
      "payable": false,
      "stateMutability": "nonpayable",
      "type": "function"
    }
  ],
  "bytecode": "0x60806040526010600155600154600a0a6002556201518060035566038d7ea4c6800060085560006009556046600a55336000806101000a81548173ffffffffffffffffffffffffffffffffffffffff021916908373ffffffffffffffffffffffffffffffffffffffff1602179055506000809054906101000a900473ffffffffffffffffffffffffffffffffffffffff1673ffffffffffffffffffffffffffffffffffffffff16600073ffffffffffffffffffffffffffffffffffffffff167f8be0079c531659141344cd1fd0a4f28419497f9722a3daafe3b4186f6b6457e060405160405180910390a3612240806100f96000396000f3006080604052600436106100fc576000357c0100000000000000000000000000000000000000000000000000000000900463ffffffff1680630ce90ec21461010157806317a7f4cc146101215780632052465e146101585780633ccfd60b146102495780634412e104146102605780634a3022d7146102f8578063528b7b8f1461037a5780635f4623f1146103e75780635faf28801461042a578063715018a6146104615780637bff0a0114610478578063809bd2af146104e15780638da5cb5b146105635780638f32d59b146105ba578063c39cbef1146105e9578063ccf670f81461062e578063e1fa76381461065b578063f2fde38b14610692575b600080fd5b61011f600480360381019080803590602001909291905050506106d5565b005b34801561012d57600080fd5b506101566004803603810190808035906020019092919080359060200190929190505050610770565b005b34801561016457600080fd5b5061018360048036038101908080359060200190929190505050610919565b60405180806020018781526020018663ffffffff1663ffffffff1681526020018563ffffffff1663ffffffff1681526020018461ffff1661ffff1681526020018361ffff1661ffff168152602001828103825288818151815260200191508051906020019080838360005b838110156102095780820151818401526020810190506101ee565b50505050905090810190601f1680156102365780820380516001836020036101000a031916815260200191505b5097505050505050505060405180910390f35b34801561025557600080fd5b5061025e610a38565b005b34801561026c57600080fd5b506102a1600480360381019080803573ffffffffffffffffffffffffffffffffffffffff169060200190929190505050610ab8565b6040518080602001828103825283818151815260200191508051906020019060200280838360005b838110156102e45780820151818401526020810190506102c9565b505050509050019250505060405180910390f35b34801561030457600080fd5b5061032360048036038101908080359060200190929190505050610bea565b6040518080602001828103825283818151815260200191508051906020019060200280838360005b8381101561036657808201518184015260208101905061034b565b505050509050019250505060405180910390f35b34801561038657600080fd5b506103a560048036038101908080359060200190929190505050610e82565b604051808273ffffffffffffffffffffffffffffffffffffffff1673ffffffffffffffffffffffffffffffffffffffff16815260200191505060405180910390f35b3480156103f357600080fd5b50610428600480360381019080803573ffffffffffffffffffffffffffffffffffffffff169060200190929190505050610eb5565b005b34801561043657600080fd5b5061045f6004803603810190808035906020019092919080359060200190929190505050610f0c565b005b34801561046d57600080fd5b50610476610fee565b005b34801561048457600080fd5b506104df600480360381019080803590602001908201803590602001908080601f01602080910402602001604051908101604052809392919081815260200183838082843782019150505050505091929192905050506110c0565b005b3480156104ed57600080fd5b5061050c600480360381019080803590602001909291905050506110ec565b6040518080602001828103825283818151815260200191508051906020019060200280838360005b8381101561054f578082015181840152602081019050610534565b505050509050019250505060405180910390f35b34801561056f57600080fd5b50610578611388565b604051808273ffffffffffffffffffffffffffffffffffffffff1673ffffffffffffffffffffffffffffffffffffffff16815260200191505060405180910390f35b3480156105c657600080fd5b506105cf6113b1565b604051808215151515815260200191505060405180910390f35b3480156105f557600080fd5b5061062c60048036038101908080359060200190929190803590602001908201803590602001919091929391929390505050611408565b005b34801561063a57600080fd5b50610659600480360381019080803590602001909291905050506114f6565b005b34801561066757600080fd5b506106906004803603810190808035906020019092919080359060200190929190505050611513565b005b34801561069e57600080fd5b506106d3600480360381019080803573ffffffffffffffffffffffffffffffffffffffff1690602001909291905050506117a6565b005b600854341415156106e557600080fd5b61072f60016004838154811015156106f957fe5b906000526020600020906003020160020160009054906101000a900463ffffffff1663ffffffff166117c590919063ffffffff16565b60048281548110151561073e57fe5b906000526020600020906003020160020160006101000a81548163ffffffff021916908363ffffffff16021790555050565b6000600760009054906101000a900473ffffffffffffffffffffffffffffffffffffffff1673ffffffffffffffffffffffffffffffffffffffff1663e98b7f4d836040518263ffffffff167c01000000000000000000000000000000000000000000000000000000000281526004018082815260200191505061014060405180830381600087803b15801561080457600080fd5b505af1158015610818573d6000803e3d6000fd5b505050506040513d61014081101561082f57600080fd5b81019080805190602001909291908051906020019092919080519060200190929190805190602001909291908051906020019092919080519060200190929190805190602001909291908051906020019092919080519060200190929190805190602001909291905050509091929394959697985090919293949596975090919293949596509091929394955090919293945090919293509091925090915090508091505061091483826040805190810160405280600581526020017f6b697474790000000000000000000000000000000000000000000000000000008152506117ef565b505050565b60048181548110151561092857fe5b9060005260206000209060030201600091509050806000018054600181600116156101000203166002900480601f0160208091040260200160405190810160405280929190818152602001828054600181600116156101000203166002900480156109d45780601f106109a9576101008083540402835291602001916109d4565b820191906000526020600020905b8154815290600101906020018083116109b757829003601f168201915b5050505050908060010154908060020160009054906101000a900463ffffffff16908060020160049054906101000a900463ffffffff16908060020160089054906101000a900461ffff169080600201600a9054906101000a900461ffff16905086565b6000610a426113b1565b1515610a4d57600080fd5b610a55611388565b90508073ffffffffffffffffffffffffffffffffffffffff166108fc3073ffffffffffffffffffffffffffffffffffffffff16319081150290604051600060405180830381858888f19350505050158015610ab4573d6000803e3d6000fd5b5050565b606080600080600660008673ffffffffffffffffffffffffffffffffffffffff1673ffffffffffffffffffffffffffffffffffffffff16815260200190815260200160002054604051908082528060200260200182016040528015610b2c5781602001602082028038833980820191505090505b50925060009150600090505b600480549050811015610bdf578473ffffffffffffffffffffffffffffffffffffffff166005600083815260200190815260200160002060009054906101000a900473ffffffffffffffffffffffffffffffffffffffff1673ffffffffffffffffffffffffffffffffffffffff161415610bd257808383815181101515610bbb57fe5b906020019060200201818152505081806001019250505b8080600101915050610b38565b829350505050919050565b606080606060008060008060008060008a118015610c09575060648a11155b1515610c1457600080fd5b89604051908082528060200260200182016040528015610c435781602001602082028038833980820191505090505b50975089604051908082528060200260200182016040528015610c755781602001602082028038833980820191505090505b50965060009550600094505b60048054905085108015610c9457508986105b15610d1a57848887815181101515610ca857fe5b9060200190602002018181525050600485815481101515610cc557fe5b906000526020600020906003020160020160089054906101000a900461ffff1661ffff168787815181101515610cf757fe5b906020019060200201818152505085806001019650508480600101955050610c81565b600093505b60018603841015610e7257600092505b600184870303831015610e65578660018401815181101515610d4d57fe5b906020019060200201518784815181101515610d6557fe5b906020019060200201511015610e58578683815181101515610d8357fe5b9060200190602002015191508660018401815181101515610da057fe5b906020019060200201518784815181101515610db857fe5b9060200190602002018181525050818760018501815181101515610dd857fe5b90602001906020020181815250508783815181101515610df457fe5b9060200190602002015190508760018401815181101515610e1157fe5b906020019060200201518884815181101515610e2957fe5b9060200190602002018181525050808860018501815181101515610e4957fe5b90602001906020020181815250505b8280600101935050610d2f565b8380600101945050610d1f565b8798505050505050505050919050565b60056020528060005260406000206000915054906101000a900473ffffffffffffffffffffffffffffffffffffffff1681565b610ebd6113b1565b1515610ec857600080fd5b80600760006101000a81548173ffffffffffffffffffffffffffffffffffffffff021916908373ffffffffffffffffffffffffffffffffffffffff16021790555050565b60148281600482815481101515610f1f57fe5b906000526020600020906003020160020160009054906101000a900463ffffffff1663ffffffff1610151515610f5457600080fd5b836005600082815260200190815260200160002060009054906101000a900473ffffffffffffffffffffffffffffffffffffffff1673ffffffffffffffffffffffffffffffffffffffff163373ffffffffffffffffffffffffffffffffffffffff16141515610fc257600080fd5b83600486815481101515610fd257fe5b9060005260206000209060030201600101819055505050505050565b610ff66113b1565b151561100157600080fd5b600073ffffffffffffffffffffffffffffffffffffffff166000809054906101000a900473ffffffffffffffffffffffffffffffffffffffff1673ffffffffffffffffffffffffffffffffffffffff167f8be0079c531659141344cd1fd0a4f28419497f9722a3daafe3b4186f6b6457e060405160405180910390a360008060006101000a81548173ffffffffffffffffffffffffffffffffffffffff021916908373ffffffffffffffffffffffffffffffffffffffff160217905550565b60006110cb82611a9c565b90506064818115156110d957fe5b06810390506110e88282611b8a565b5050565b606080606060008060008060008060008a11801561110b575060648a11155b151561111657600080fd5b896040519080825280602002602001820160405280156111455781602001602082028038833980820191505090505b509750896040519080825280602002602001820160405280156111775781602001602082028038833980820191505090505b50965060009550600094505b6004805490508510801561119657508986105b15611220578488878151811015156111aa57fe5b90602001906020020181815250506004858154811015156111c757fe5b906000526020600020906003020160020160009054906101000a900463ffffffff1663ffffffff1687878151811015156111fd57fe5b906020019060200201818152505085806001019650508480600101955050611183565b600093505b6001860384101561137857600092505b60018487030383101561136b57866001840181518110151561125357fe5b90602001906020020151878481518110151561126b57fe5b90602001906020020151101561135e57868381518110151561128957fe5b90602001906020020151915086600184018151811015156112a657fe5b9060200190602002015187848151811015156112be57fe5b90602001906020020181815250508187600185018151811015156112de57fe5b906020019060200201818152505087838151811015156112fa57fe5b906020019060200201519050876001840181518110151561131757fe5b90602001906020020151888481518110151561132f57fe5b906020019060200201818152505080886001850181518110151561134f57fe5b90602001906020020181815250505b8280600101935050611235565b8380600101945050611225565b8798505050505050505050919050565b60008060009054906101000a900473ffffffffffffffffffffffffffffffffffffffff16905090565b60008060009054906101000a900473ffffffffffffffffffffffffffffffffffffffff1673ffffffffffffffffffffffffffffffffffffffff163373ffffffffffffffffffffffffffffffffffffffff1614905090565b6002838160048281548110151561141b57fe5b906000526020600020906003020160020160009054906101000a900463ffffffff1663ffffffff161015151561145057600080fd5b846005600082815260200190815260200160002060009054906101000a900473ffffffffffffffffffffffffffffffffffffffff1673ffffffffffffffffffffffffffffffffffffffff163373ffffffffffffffffffffffffffffffffffffffff161415156114be57600080fd5b84846004888154811015156114cf57fe5b906000526020600020906003020160000191906114ed9291906120ef565b50505050505050565b6114fe6113b1565b151561150957600080fd5b8060088190555050565b6000806000846005600082815260200190815260200160002060009054906101000a900473ffffffffffffffffffffffffffffffffffffffff1673ffffffffffffffffffffffffffffffffffffffff163373ffffffffffffffffffffffffffffffffffffffff1614151561158657600080fd5b60048681548110151561159557fe5b906000526020600020906003020193506004858154811015156115b457fe5b906000526020600020906003020192506115ce6064611e5d565b9150600a54821115156117045761160560018560020160089054906101000a900461ffff1661ffff16611f6090919063ffffffff16565b8460020160086101000a81548161ffff021916908361ffff16021790555061165160018560020160009054906101000a900463ffffffff1663ffffffff166117c590919063ffffffff16565b8460020160006101000a81548163ffffffff021916908363ffffffff16021790555061169d600184600201600a9054906101000a900461ffff1661ffff16611f6090919063ffffffff16565b83600201600a6101000a81548161ffff021916908361ffff1602179055506116ff8684600101546040805190810160405280600681526020017f7a6f6d62696500000000000000000000000000000000000000000000000000008152506117ef565b61179e565b61172e600185600201600a9054906101000a900461ffff1661ffff16611f6090919063ffffffff16565b84600201600a6101000a81548161ffff021916908361ffff16021790555061177660018460020160089054906101000a900461ffff1661ffff16611f6090919063ffffffff16565b8360020160086101000a81548161ffff021916908361ffff16021790555061179d84611f86565b5b505050505050565b6117ae6113b1565b15156117b957600080fd5b6117c281611fb0565b50565b60008082840190508363ffffffff168163ffffffff16101515156117e557fe5b8091505092915050565b600080846005600082815260200190815260200160002060009054906101000a900473ffffffffffffffffffffffffffffffffffffffff1673ffffffffffffffffffffffffffffffffffffffff163373ffffffffffffffffffffffffffffffffffffffff1614151561186057600080fd5b60048681548110151561186f57fe5b90600052602060002090600302019250611888836120aa565b151561189357600080fd5b600254858115156118a057fe5b0694506002858460010154018115156118b557fe5b04915060405160200180807f6b6974747900000000000000000000000000000000000000000000000000000081525060050190506040516020818303038152906040526040518082805190602001908083835b60208310151561192d5780518252602082019150602081019050602083039250611908565b6001836020036101000a038019825116818451168082178552505050505050905001915050604051809103902060001916846040516020018082805190602001908083835b6020831015156119975780518252602082019150602081019050602083039250611972565b6001836020036101000a0380198251168184511680821785525050505050509050019150506040516020818303038152906040526040518082805190602001908083835b602083101515611a0057805182526020820191506020810190506020830392506119db565b6001836020036101000a0380198251168184511680821785525050505050509050019150506040518091039020600019161415611a4c576063606483811515611a4557fe5b0683030191505b611a8b6040805190810160405280600681526020017f4e6f4e616d65000000000000000000000000000000000000000000000000000081525083611b8a565b611a9483611f86565b505050505050565b600080826040516020018082805190602001908083835b602083101515611ad85780518252602082019150602081019050602083039250611ab3565b6001836020036101000a0380198251168184511680821785525050505050509050019150506040516020818303038152906040526040518082805190602001908083835b602083101515611b415780518252602082019150602081019050602083039250611b1c565b6001836020036101000a038019825116818451168082178552505050505050905001915050604051809103902060019004905060025481811515611b8157fe5b06915050919050565b60006001600460c060405190810160405280868152602001858152602001600163ffffffff168152602001600354420163ffffffff168152602001600061ffff168152602001600061ffff16815250908060018154018082558091505090600182039060005260206000209060030201600090919290919091506000820151816000019080519060200190611c2092919061216f565b506020820151816001015560408201518160020160006101000a81548163ffffffff021916908363ffffffff16021790555060608201518160020160046101000a81548163ffffffff021916908363ffffffff16021790555060808201518160020160086101000a81548161ffff021916908361ffff16021790555060a082015181600201600a6101000a81548161ffff021916908361ffff1602179055505050039050336005600083815260200190815260200160002060006101000a81548173ffffffffffffffffffffffffffffffffffffffff021916908373ffffffffffffffffffffffffffffffffffffffff160217905550611d696001600660003373ffffffffffffffffffffffffffffffffffffffff1673ffffffffffffffffffffffffffffffffffffffff168152602001908152602001600020546120d190919063ffffffff16565b600660003373ffffffffffffffffffffffffffffffffffffffff1673ffffffffffffffffffffffffffffffffffffffff168152602001908152602001600020819055507f88f026aacbbecc90c18411df4b1185fd8d9be2470f1962f192bf84a27d0704b78184846040518084815260200180602001838152602001828103825284818151815260200191508051906020019080838360005b83811015611e1c578082015181840152602081019050611e01565b50505050905090810190601f168015611e495780820380516001836020036101000a031916815260200191505b5094505050505060405180910390a1505050565b6000611e7560016009546120d190919063ffffffff16565b600981905550814233600954604051602001808481526020018373ffffffffffffffffffffffffffffffffffffffff1673ffffffffffffffffffffffffffffffffffffffff166c0100000000000000000000000002815260140182815260200193505050506040516020818303038152906040526040518082805190602001908083835b602083101515611f1e5780518252602082019150602081019050602083039250611ef9565b6001836020036101000a038019825116818451168082178552505050505050905001915050604051809103902060019004811515611f5857fe5b069050919050565b60008082840190508361ffff168161ffff1610151515611f7c57fe5b8091505092915050565b60035442018160020160046101000a81548163ffffffff021916908363ffffffff16021790555050565b600073ffffffffffffffffffffffffffffffffffffffff168173ffffffffffffffffffffffffffffffffffffffff1614151515611fec57600080fd5b8073ffffffffffffffffffffffffffffffffffffffff166000809054906101000a900473ffffffffffffffffffffffffffffffffffffffff1673ffffffffffffffffffffffffffffffffffffffff167f8be0079c531659141344cd1fd0a4f28419497f9722a3daafe3b4186f6b6457e060405160405180910390a3806000806101000a81548173ffffffffffffffffffffffffffffffffffffffff021916908373ffffffffffffffffffffffffffffffffffffffff16021790555050565b6000428260020160049054906101000a900463ffffffff1663ffffffff1611159050919050565b60008082840190508381101515156120e557fe5b8091505092915050565b828054600181600116156101000203166002900490600052602060002090601f016020900481019282601f1061213057803560ff191683800117855561215e565b8280016001018555821561215e579182015b8281111561215d578235825591602001919060010190612142565b5b50905061216b91906121ef565b5090565b828054600181600116156101000203166002900490600052602060002090601f016020900481019282601f106121b057805160ff19168380011785556121de565b828001600101855582156121de579182015b828111156121dd5782518255916020019190600101906121c2565b5b5090506121eb91906121ef565b5090565b61221191905b8082111561220d5760008160009055506001016121f5565b5090565b905600a165627a7a723058207511461740b5aba7b99901f76f2819e206a9b844550d95a4401dd100ee96cf3e0029",
  "source": "pragma solidity ^0.4.25;\n\nimport \"./zombiehelper.sol\";\n\ncontract ZombieAttack is ZombieHelper {\n  uint randNonce = 0;\n  uint attackVictoryProbability = 70;\n\n  function randMod(uint _modulus) internal returns(uint) {\n    randNonce = randNonce.add(1);\n    return uint(keccak256(abi.encodePacked(now, msg.sender, randNonce))) % _modulus;\n  }\n\n  function attack(uint _zombieId, uint _targetId) external onlyOwnerOf(_zombieId) {\n    Zombie storage myZombie = zombies[_zombieId];\n    Zombie storage enemyZombie = zombies[_targetId];\n    uint rand = randMod(100);\n    if (rand <= attackVictoryProbability) {\n      myZombie.winCount = myZombie.winCount.add(1);\n      myZombie.level = myZombie.level.add(1);\n      enemyZombie.lossCount = enemyZombie.lossCount.add(1);\n      feedAndMultiply(_zombieId, enemyZombie.dna, \"zombie\");\n    } else {\n      myZombie.lossCount = myZombie.lossCount.add(1);\n      enemyZombie.winCount = enemyZombie.winCount.add(1);\n      _triggerCooldown(myZombie);\n    }\n  }\n}\n",
  "sourcePath": "D:\\MSCS\\Blockchain\\Project\\Cryptozombie DApp\\contracts\\zombieattack.sol",
  "compiler": {
    "name": "solc",
    "version": "0.4.25+commit.59dbf8f1.Emscripten.clang"
  },
  "schemaVersion": "3.4.16",
  "updatedAt": "2026-03-15T20:18:34.295Z",
  "devdoc": {
    "methods": {
      "isOwner()": {
        "return": "true if `msg.sender` is the owner of the contract."
      },
      "owner()": {
        "return": "the address of the owner."
      },
      "renounceOwnership()": {
        "details": "Allows the current owner to relinquish control of the contract."
      },
      "transferOwnership(address)": {
        "details": "Allows the current owner to transfer control of the contract to a newOwner.",
        "params": {
          "newOwner": "The address to transfer ownership to."
        }
      }
    }
  },
  "userdoc": {
    "methods": {
      "renounceOwnership()": {
        "notice": "Renouncing to ownership will leave the contract without an owner. It will not be possible to call the functions with the `onlyOwner` modifier anymore."
      }
    }
  }
}